{
    "_format": "hh-sol-artifact-1",
    "contractName": "Transactions",
    "sourceName": "contracts/Transactions.sol",
    "abi": [
        {
            "anonymous": false,
            "inputs": [
                {
                    "indexed": false,
                    "internalType": "address",
                    "name": "owner",
                    "type": "address"
                },
                {
                    "indexed": false,
                    "internalType": "uint256",
                    "name": "amount",
                    "type": "uint256"
                },
                {
                    "indexed": false,
                    "internalType": "uint256",
                    "name": "timestamp",
                    "type": "uint256"
                }
            ],
            "name": "ClaimAll",
            "type": "event"
        },
        {
            "anonymous": false,
            "inputs": [
                {
                    "indexed": false,
                    "internalType": "address",
                    "name": "from",
                    "type": "address"
                },
                {
                    "indexed": false,
                    "internalType": "uint256",
                    "name": "amount",
                    "type": "uint256"
                },
                {
                    "indexed": false,
                    "internalType": "uint256",
                    "name": "timestamp",
                    "type": "uint256"
                }
            ],
            "name": "Deposit",
            "type": "event"
        },
        {
            "anonymous": false,
            "inputs": [
                {
                    "indexed": false,
                    "internalType": "address",
                    "name": "from",
                    "type": "address"
                },
                {
                    "indexed": false,
                    "internalType": "address",
                    "name": "receiver",
                    "type": "address"
                },
                {
                    "indexed": false,
                    "internalType": "uint256",
                    "name": "amount",
                    "type": "uint256"
                },
                {
                    "indexed": false,
                    "internalType": "string",
                    "name": "message",
                    "type": "string"
                },
                {
                    "indexed": false,
                    "internalType": "uint256",
                    "name": "timestamp",
                    "type": "uint256"
                },
                {
                    "indexed": false,
                    "internalType": "string",
                    "name": "keyword",
                    "type": "string"
                }
            ],
            "name": "Transfer",
            "type": "event"
        },
        {
            "anonymous": false,
            "inputs": [
                {
                    "indexed": false,
                    "internalType": "address",
                    "name": "to",
                    "type": "address"
                },
                {
                    "indexed": false,
                    "internalType": "uint256",
                    "name": "amount",
                    "type": "uint256"
                },
                {
                    "indexed": false,
                    "internalType": "uint256",
                    "name": "timestamp",
                    "type": "uint256"
                }
            ],
            "name": "Withdraw",
            "type": "event"
        },
        {
            "inputs": [
                {
                    "internalType": "address payable",
                    "name": "receiver",
                    "type": "address"
                },
                {
                    "internalType": "uint256",
                    "name": "amount",
                    "type": "uint256"
                },
                {
                    "internalType": "string",
                    "name": "message",
                    "type": "string"
                },
                {
                    "internalType": "string",
                    "name": "keyword",
                    "type": "string"
                }
            ],
            "name": "addToBlockchain",
            "outputs": [],
            "stateMutability": "nonpayable",
            "type": "function"
        },
        {
            "inputs": [],
            "name": "claimAll",
            "outputs": [],
            "stateMutability": "nonpayable",
            "type": "function"
        },
        {
            "inputs": [],
            "name": "deposit",
            "outputs": [],
            "stateMutability": "payable",
            "type": "function"
        },
        {
            "inputs": [],
            "name": "getAllTransactions",
            "outputs": [
                {
                    "components": [
                        {
                            "internalType": "address",
                            "name": "sender",
                            "type": "address"
                        },
                        {
                            "internalType": "address",
                            "name": "receiver",
                            "type": "address"
                        },
                        {
                            "internalType": "uint256",
                            "name": "amount",
                            "type": "uint256"
                        },
                        {
                            "internalType": "string",
                            "name": "message",
                            "type": "string"
                        },
                        {
                            "internalType": "uint256",
                            "name": "timestamp",
                            "type": "uint256"
                        },
                        {
                            "internalType": "string",
                            "name": "keyword",
                            "type": "string"
                        }
                    ],
                    "internalType": "struct Transactions.TransferStruct[]",
                    "name": "",
                    "type": "tuple[]"
                }
            ],
            "stateMutability": "view",
            "type": "function"
        },
        {
            "inputs": [],
            "name": "getTransactionCount",
            "outputs": [
                {
                    "internalType": "uint256",
                    "name": "",
                    "type": "uint256"
                }
            ],
            "stateMutability": "view",
            "type": "function"
        },
        {
            "inputs": [
                {
                    "internalType": "uint256",
                    "name": "amount",
                    "type": "uint256"
                }
            ],
            "name": "withdraw",
            "outputs": [],
            "stateMutability": "nonpayable",
            "type": "function"
        }
    ],
    "bytecode": "0x608060405234801561001057600080fd5b506111d3806100206000396000f3fe6080604052600436106100555760003560e01c806327506f531461005a5780632e1a7d4d146100855780632e7700f0146100ae578063cc2d7ead146100d9578063d0e30db014610102578063d1058e591461010c575b600080fd5b34801561006657600080fd5b5061006f610123565b60405161007c9190610e0b565b60405180910390f35b34801561009157600080fd5b506100ac60048036038101906100a79190610ae6565b610366565b005b3480156100ba57600080fd5b506100c36104c3565b6040516100d09190610e6d565b60405180910390f35b3480156100e557600080fd5b5061010060048036038101906100fb9190610a53565b6104cc565b005b61010a61073a565b005b34801561011857600080fd5b506101216107cd565b005b60606002805480602002602001604051908101604052809291908181526020016000905b8282101561035d57838290600052602060002090600602016040518060c00160405290816000820160009054906101000a900473ffffffffffffffffffffffffffffffffffffffff1673ffffffffffffffffffffffffffffffffffffffff1673ffffffffffffffffffffffffffffffffffffffff1681526020016001820160009054906101000a900473ffffffffffffffffffffffffffffffffffffffff1673ffffffffffffffffffffffffffffffffffffffff1673ffffffffffffffffffffffffffffffffffffffff168152602001600282015481526020016003820180546102309061109f565b80601f016020809104026020016040519081016040528092919081815260200182805461025c9061109f565b80156102a95780601f1061027e576101008083540402835291602001916102a9565b820191906000526020600020905b81548152906001019060200180831161028c57829003601f168201915b50505050508152602001600482015481526020016005820180546102cc9061109f565b80601f01602080910402602001604051908101604052809291908181526020018280546102f89061109f565b80156103455780601f1061031a57610100808354040283529160200191610345565b820191906000526020600020905b81548152906001019060200180831161032857829003601f168201915b50505050508152505081526020019060010190610147565b50505050905090565b600160003373ffffffffffffffffffffffffffffffffffffffff1673ffffffffffffffffffffffffffffffffffffffff168152602001908152602001600020548111156103e8576040517f08c379a00000000000000000000000000000000000000000000000000000000081526004016103df90610e2d565b60405180910390fd5b3373ffffffffffffffffffffffffffffffffffffffff166108fc829081150290604051600060405180830381858888f1935050505015801561042e573d6000803e3d6000fd5b5080600160003373ffffffffffffffffffffffffffffffffffffffff1673ffffffffffffffffffffffffffffffffffffffff168152602001908152602001600020600082825461047e9190610fa5565b925050819055507ff279e6a1f5e320cca91135676d9cb6e44ca8a08c0b88342bcdb1144f6511b5683382426040516104b893929190610dd4565b60405180910390a150565b60008054905090565b60016000808282546104de9190610f4f565b9250508190555060026040518060c001604052803373ffffffffffffffffffffffffffffffffffffffff1681526020018673ffffffffffffffffffffffffffffffffffffffff16815260200185815260200184815260200142815260200183815250908060018154018082558091505060019003906000526020600020906006020160009091909190915060008201518160000160006101000a81548173ffffffffffffffffffffffffffffffffffffffff021916908373ffffffffffffffffffffffffffffffffffffffff16021790555060208201518160010160006101000a81548173ffffffffffffffffffffffffffffffffffffffff021916908373ffffffffffffffffffffffffffffffffffffffff16021790555060408201518160020155606082015181600301908051906020019061061d92919061091e565b506080820151816004015560a082015181600501908051906020019061064492919061091e565b50505082600160003373ffffffffffffffffffffffffffffffffffffffff1673ffffffffffffffffffffffffffffffffffffffff16815260200190815260200160002060008282546106969190610fa5565b9250508190555082600160008673ffffffffffffffffffffffffffffffffffffffff1673ffffffffffffffffffffffffffffffffffffffff16815260200190815260200160002060008282546106ec9190610f4f565b925050819055507f416cfa4330a4565f45c2fd2dd4826a83a37443aba2ce6f79477c7355afac35fa33858585428660405161072c96959493929190610d65565b60405180910390a150505050565b34600160003373ffffffffffffffffffffffffffffffffffffffff1673ffffffffffffffffffffffffffffffffffffffff16815260200190815260200160002060008282546107899190610f4f565b925050819055507f90890809c654f11d6e72a28fa60149770a0d11ec6c92319d6ceb2bb0a4ea1a153334426040516107c393929190610dd4565b60405180910390a1565b6000600160003373ffffffffffffffffffffffffffffffffffffffff1673ffffffffffffffffffffffffffffffffffffffff16815260200190815260200160002054905060008111610854576040517f08c379a000000000000000000000000000000000000000000000000000000000815260040161084b90610e4d565b60405180910390fd5b3373ffffffffffffffffffffffffffffffffffffffff166108fc829081150290604051600060405180830381858888f1935050505015801561089a573d6000803e3d6000fd5b506000600160003373ffffffffffffffffffffffffffffffffffffffff1673ffffffffffffffffffffffffffffffffffffffff168152602001908152602001600020819055507fe5b519eccad60ea5af710c9c7792f84934cb83d5c13f3cf5cfc68432d56882c233824260405161091393929190610dd4565b60405180910390a150565b82805461092a9061109f565b90600052602060002090601f01602090048101928261094c5760008555610993565b82601f1061096557805160ff1916838001178555610993565b82800160010185558215610993579182015b82811115610992578251825591602001919060010190610977565b5b5090506109a091906109a4565b5090565b5b808211156109bd5760008160009055506001016109a5565b5090565b60006109d46109cf84610eb9565b610e88565b9050828152602081018484840111156109ec57600080fd5b6109f784828561105d565b509392505050565b600081359050610a0e8161116f565b92915050565b600082601f830112610a2557600080fd5b8135610a358482602086016109c1565b91505092915050565b600081359050610a4d81611186565b92915050565b60008060008060808587031215610a6957600080fd5b6000610a77878288016109ff565b9450506020610a8887828801610a3e565b935050604085013567ffffffffffffffff811115610aa557600080fd5b610ab187828801610a14565b925050606085013567ffffffffffffffff811115610ace57600080fd5b610ada87828801610a14565b91505092959194509250565b600060208284031215610af857600080fd5b6000610b0684828501610a3e565b91505092915050565b6000610b1b8383610cb7565b905092915050565b610b2c81611027565b82525050565b610b3b81610fd9565b82525050565b610b4a81610fd9565b82525050565b6000610b5b82610ef9565b610b658185610f1c565b935083602082028501610b7785610ee9565b8060005b85811015610bb35784840389528151610b948582610b0f565b9450610b9f83610f0f565b925060208a01995050600181019050610b7b565b50829750879550505050505092915050565b6000610bd082610f04565b610bda8185610f2d565b9350610bea81856020860161106c565b610bf38161115e565b840191505092915050565b6000610c0982610f04565b610c138185610f3e565b9350610c2381856020860161106c565b610c2c8161115e565b840191505092915050565b6000610c44601483610f3e565b91507f496e73756666696369656e742062616c616e63650000000000000000000000006000830152602082019050919050565b6000610c84601383610f3e565b91507f4e6f2062616c616e636520746f20636c61696d000000000000000000000000006000830152602082019050919050565b600060c083016000830151610ccf6000860182610b32565b506020830151610ce26020860182610b32565b506040830151610cf56040860182610d47565b5060608301518482036060860152610d0d8282610bc5565b9150506080830151610d226080860182610d47565b5060a083015184820360a0860152610d3a8282610bc5565b9150508091505092915050565b610d508161101d565b82525050565b610d5f8161101d565b82525050565b600060c082019050610d7a6000830189610b41565b610d876020830188610b23565b610d946040830187610d56565b8181036060830152610da68186610bfe565b9050610db56080830185610d56565b81810360a0830152610dc78184610bfe565b9050979650505050505050565b6000606082019050610de96000830186610b41565b610df66020830185610d56565b610e036040830184610d56565b949350505050565b60006020820190508181036000830152610e258184610b50565b905092915050565b60006020820190508181036000830152610e4681610c37565b9050919050565b60006020820190508181036000830152610e6681610c77565b9050919050565b6000602082019050610e826000830184610d56565b92915050565b6000604051905081810181811067ffffffffffffffff82111715610eaf57610eae61112f565b5b8060405250919050565b600067ffffffffffffffff821115610ed457610ed361112f565b5b601f19601f8301169050602081019050919050565b6000819050602082019050919050565b600081519050919050565b600081519050919050565b6000602082019050919050565b600082825260208201905092915050565b600082825260208201905092915050565b600082825260208201905092915050565b6000610f5a8261101d565b9150610f658361101d565b9250827fffffffffffffffffffffffffffffffffffffffffffffffffffffffffffffffff03821115610f9a57610f996110d1565b5b828201905092915050565b6000610fb08261101d565b9150610fbb8361101d565b925082821015610fce57610fcd6110d1565b5b828203905092915050565b6000610fe482610ffd565b9050919050565b6000610ff682610ffd565b9050919050565b600073ffffffffffffffffffffffffffffffffffffffff82169050919050565b6000819050919050565b600061103282611039565b9050919050565b60006110448261104b565b9050919050565b600061105682610ffd565b9050919050565b82818337600083830152505050565b60005b8381101561108a57808201518184015260208101905061106f565b83811115611099576000848401525b50505050565b600060028204905060018216806110b757607f821691505b602082108114156110cb576110ca611100565b5b50919050565b7f4e487b7100000000000000000000000000000000000000000000000000000000600052601160045260246000fd5b7f4e487b7100000000000000000000000000000000000000000000000000000000600052602260045260246000fd5b7f4e487b7100000000000000000000000000000000000000000000000000000000600052604160045260246000fd5b6000601f19601f8301169050919050565b61117881610feb565b811461118357600080fd5b50565b61118f8161101d565b811461119a57600080fd5b5056fea26469706673582212205752f3a8b1eaa5a734c21d5563ac766a929cbcea9e30edbc1ccaeade8896a82264736f6c63430008000033",
    "linkReferences": {},
    "deployedLinkReferences": {}
}